{
  "contractName": "Coinflip",
  "abi": [
    {
      "inputs": [],
      "payable": true,
      "stateMutability": "payable",
      "type": "constructor"
    },
    {
      "anonymous": false,
      "inputs": [
        {
          "indexed": false,
          "internalType": "address",
          "name": "player",
          "type": "address"
        },
        {
          "indexed": false,
          "internalType": "uint256",
          "name": "betAmount",
          "type": "uint256"
        },
        {
          "indexed": false,
          "internalType": "bool",
          "name": "betFlip",
          "type": "bool"
        },
        {
          "indexed": false,
          "internalType": "bool",
          "name": "flipResult",
          "type": "bool"
        },
        {
          "indexed": false,
          "internalType": "uint256",
          "name": "payout",
          "type": "uint256"
        },
        {
          "indexed": false,
          "internalType": "uint256",
          "name": "contractBalance",
          "type": "uint256"
        }
      ],
      "name": "BetResult",
      "type": "event"
    },
    {
      "constant": true,
      "inputs": [],
      "name": "balance",
      "outputs": [
        {
          "internalType": "uint256",
          "name": "",
          "type": "uint256"
        }
      ],
      "payable": false,
      "stateMutability": "view",
      "type": "function"
    },
    {
      "constant": true,
      "inputs": [],
      "name": "owner",
      "outputs": [
        {
          "internalType": "address payable",
          "name": "",
          "type": "address"
        }
      ],
      "payable": false,
      "stateMutability": "view",
      "type": "function"
    },
    {
      "constant": true,
      "inputs": [],
      "name": "getBalance",
      "outputs": [
        {
          "internalType": "uint256",
          "name": "",
          "type": "uint256"
        }
      ],
      "payable": false,
      "stateMutability": "view",
      "type": "function"
    },
    {
      "constant": false,
      "inputs": [
        {
          "internalType": "uint256",
          "name": "amount",
          "type": "uint256"
        }
      ],
      "name": "withdrawAmount",
      "outputs": [],
      "payable": false,
      "stateMutability": "nonpayable",
      "type": "function"
    },
    {
      "constant": false,
      "inputs": [],
      "name": "withdrawAll",
      "outputs": [],
      "payable": false,
      "stateMutability": "nonpayable",
      "type": "function"
    },
    {
      "constant": true,
      "inputs": [],
      "name": "random",
      "outputs": [
        {
          "internalType": "bool",
          "name": "",
          "type": "bool"
        }
      ],
      "payable": false,
      "stateMutability": "view",
      "type": "function"
    },
    {
      "constant": false,
      "inputs": [
        {
          "internalType": "bool",
          "name": "betFlip",
          "type": "bool"
        }
      ],
      "name": "bet",
      "outputs": [],
      "payable": true,
      "stateMutability": "payable",
      "type": "function"
    },
    {
      "constant": false,
      "inputs": [],
      "name": "destroy",
      "outputs": [],
      "payable": false,
      "stateMutability": "nonpayable",
      "type": "function"
    }
  ],
  "bytecode": "0x6080604052336000806101000a81548173ffffffffffffffffffffffffffffffffffffffff021916908373ffffffffffffffffffffffffffffffffffffffff160217905550346001819055506105b08061005a6000396000f3fe60806040526004361061007b5760003560e01c806383197ef01161004e57806383197ef014610145578063853828b61461015c5780638da5cb5b14610173578063b69ef8a8146101ca5761007b565b80630562b9f71461008057806312065fe0146100bb578063523afb0d146100e65780635ec01e4d14610116575b600080fd5b34801561008c57600080fd5b506100b9600480360360208110156100a357600080fd5b81019080803590602001909291905050506101f5565b005b3480156100c757600080fd5b506100d06102a9565b6040518082815260200191505060405180910390f35b610114600480360360208110156100fc57600080fd5b810190808035151590602001909291905050506102b3565b005b34801561012257600080fd5b5061012b6103f7565b604051808215151515815260200191505060405180910390f35b34801561015157600080fd5b5061015a61040b565b005b34801561016857600080fd5b5061017161049e565b005b34801561017f57600080fd5b50610188610550565b604051808273ffffffffffffffffffffffffffffffffffffffff1673ffffffffffffffffffffffffffffffffffffffff16815260200191505060405180910390f35b3480156101d657600080fd5b506101df610575565b6040518082815260200191505060405180910390f35b6000809054906101000a900473ffffffffffffffffffffffffffffffffffffffff1673ffffffffffffffffffffffffffffffffffffffff163373ffffffffffffffffffffffffffffffffffffffff161461024e57600080fd5b600081905081600154036001819055503373ffffffffffffffffffffffffffffffffffffffff166108fc829081150290604051600060405180830381858888f193505050501580156102a4573d6000803e3d6000fd5b505050565b6000600154905090565b6000600154116102c257600080fd5b3460015410156102d157600080fd5b60006102db6103f7565b90506000821515821515146102ff573460016000828254019250508190555061035d565b346001600082825403925050819055503460020290503373ffffffffffffffffffffffffffffffffffffffff166108fc829081150290604051600060405180830381858888f1935050505015801561035b573d6000803e3d6000fd5b505b7fed6da8aac3c94abce5c36f10714a4e79358ec141ba6bbf558f75fd1a4c4f38693334858585600154604051808773ffffffffffffffffffffffffffffffffffffffff1673ffffffffffffffffffffffffffffffffffffffff1681526020018681526020018515151515815260200184151515158152602001838152602001828152602001965050505050505060405180910390a1505050565b6000806002428161040457fe5b0614905090565b6000809054906101000a900473ffffffffffffffffffffffffffffffffffffffff1673ffffffffffffffffffffffffffffffffffffffff163373ffffffffffffffffffffffffffffffffffffffff161461046457600080fd5b6000809054906101000a900473ffffffffffffffffffffffffffffffffffffffff1673ffffffffffffffffffffffffffffffffffffffff16ff5b6000809054906101000a900473ffffffffffffffffffffffffffffffffffffffff1673ffffffffffffffffffffffffffffffffffffffff163373ffffffffffffffffffffffffffffffffffffffff16146104f757600080fd5b6000600154905060006001819055503373ffffffffffffffffffffffffffffffffffffffff166108fc829081150290604051600060405180830381858888f1935050505015801561054c573d6000803e3d6000fd5b5050565b6000809054906101000a900473ffffffffffffffffffffffffffffffffffffffff1681565b6001548156fea265627a7a72315820bd7d85875f18495e0f5111a958d30548c59f67ffbaa3753e545a42d70b0fbcf064736f6c634300050c0032",
  "source": "import \"./Ownable.sol\";  \npragma solidity 0.5.12;\n\ncontract Coinflip is Ownable {\n\n    uint public balance;\n\n\tevent BetResult(address player, uint betAmount, bool betFlip, bool flipResult, uint payout, uint contractBalance);\n\n    constructor() public payable{\n        balance = msg.value;\n    }\n\n    function getBalance() public view returns(uint) {\n    \treturn balance;\n    }\n\n    function withdrawAmount(uint amount) public onlyOwner {\n       uint toTransfer = amount;\n       balance = balance - amount;\n       msg.sender.transfer(toTransfer);\n   }\n\n    function withdrawAll() public onlyOwner {\n       uint toTransfer = balance;\n       balance = 0;\n       msg.sender.transfer(toTransfer);\n   }\n\n    // tails = true, heads = false\n   function random() public view returns(bool) {\n   \t   return (now % 2) == 0;\n   }\n\n   function bet(bool betFlip) public payable {\n   \t   require(balance > 0);\n   \t   require(balance >= msg.value);\n   \t   bool flipResult = random();\n \t   uint toTransfer;\n   \t   if(flipResult != betFlip) {  \n   \t   \t\tbalance += msg.value; \n   \t   \t} else {\n   \t\t\tbalance -= msg.value; \n  \t\t\ttoTransfer = 2 * msg.value;\n   \t   \t\tmsg.sender.transfer(toTransfer);\n   \t   \t}\n   \t   \temit BetResult(msg.sender, msg.value, betFlip, flipResult, toTransfer, balance);\n   }\n\n   function destroy() external onlyOwner {\n        selfdestruct(owner);\n   }   \n\n}",
  "sourcePath": "/Users/szabolcs/Documents/Personal/Szakmai/Ethereum/coinflip-dapp/contracts/Coinflip.sol",
  "compiler": {
    "name": "solc",
    "version": "0.5.12+commit.7709ece9.Emscripten.clang"
  },
  "schemaVersion": "3.0.23",
  "updatedAt": "2020-07-09T12:57:52.184Z",
  "networkType": "ethereum",
  "devdoc": {
    "methods": {}
  },
  "userdoc": {
    "methods": {}
  }
}